{
  "_format": "hh-sol-artifact-1",
  "contractName": "PredixPolls",
  "sourceName": "contracts/PredixPoll.sol",
  "abi": [
    {
      "anonymous": false,
      "inputs": [
        {
          "indexed": true,
          "internalType": "uint256",
          "name": "pollId",
          "type": "uint256"
        }
      ],
      "name": "PollClosed",
      "type": "event"
    },
    {
      "anonymous": false,
      "inputs": [
        {
          "indexed": true,
          "internalType": "uint256",
          "name": "pollId",
          "type": "uint256"
        },
        {
          "indexed": false,
          "internalType": "string",
          "name": "title",
          "type": "string"
        },
        {
          "indexed": false,
          "internalType": "string[]",
          "name": "options",
          "type": "string[]"
        },
        {
          "indexed": false,
          "internalType": "enum PredixPolls.PollType",
          "name": "pollType",
          "type": "uint8"
        }
      ],
      "name": "PollCreated",
      "type": "event"
    },
    {
      "anonymous": false,
      "inputs": [
        {
          "indexed": true,
          "internalType": "uint256",
          "name": "pollId",
          "type": "uint256"
        },
        {
          "indexed": false,
          "internalType": "uint256",
          "name": "optionIndex",
          "type": "uint256"
        },
        {
          "indexed": false,
          "internalType": "address",
          "name": "voter",
          "type": "address"
        }
      ],
      "name": "Voted",
      "type": "event"
    },
    {
      "inputs": [
        {
          "internalType": "uint256",
          "name": "_pollId",
          "type": "uint256"
        }
      ],
      "name": "closePoll",
      "outputs": [],
      "stateMutability": "nonpayable",
      "type": "function"
    },
    {
      "inputs": [
        {
          "internalType": "string",
          "name": "_title",
          "type": "string"
        },
        {
          "internalType": "string[]",
          "name": "_options",
          "type": "string[]"
        },
        {
          "internalType": "enum PredixPolls.PollType",
          "name": "_pollType",
          "type": "uint8"
        },
        {
          "internalType": "address[]",
          "name": "_whitelist",
          "type": "address[]"
        }
      ],
      "name": "createPoll",
      "outputs": [],
      "stateMutability": "nonpayable",
      "type": "function"
    },
    {
      "inputs": [
        {
          "internalType": "uint256",
          "name": "_pollId",
          "type": "uint256"
        }
      ],
      "name": "getPollResults",
      "outputs": [
        {
          "internalType": "string",
          "name": "title",
          "type": "string"
        },
        {
          "internalType": "uint256[]",
          "name": "votes",
          "type": "uint256[]"
        }
      ],
      "stateMutability": "view",
      "type": "function"
    },
    {
      "inputs": [],
      "name": "pollCount",
      "outputs": [
        {
          "internalType": "uint256",
          "name": "",
          "type": "uint256"
        }
      ],
      "stateMutability": "view",
      "type": "function"
    },
    {
      "inputs": [
        {
          "internalType": "uint256",
          "name": "_pollId",
          "type": "uint256"
        },
        {
          "internalType": "uint256",
          "name": "_optionIndex",
          "type": "uint256"
        }
      ],
      "name": "vote",
      "outputs": [],
      "stateMutability": "nonpayable",
      "type": "function"
    }
  ],
  "bytecode": "0x6080604052348015600f57600080fd5b50611b738061001f6000396000f3fe608060405234801561001057600080fd5b50600436106100575760003560e01c806333b4097b1461005c5780637beaf4331461008d5780639207891d146100a95780639534e637146100c7578063b384abef146100e3575b600080fd5b61007660048036038101906100719190610b35565b6100ff565b604051610084929190610cb0565b60405180910390f35b6100a760048036038101906100a29190611048565b610215565b005b6100b16104f1565b6040516100be9190611112565b60405180910390f35b6100e160048036038101906100dc9190610b35565b6104f7565b005b6100fd60048036038101906100f8919061112d565b6106e6565b005b606080600160008481526020019081526020016000206001016001600085815260200190815260200160002060030181805461013a9061119c565b80601f01602080910402602001604051908101604052809291908181526020018280546101669061119c565b80156101b35780601f10610188576101008083540402835291602001916101b3565b820191906000526020600020905b81548152906001019060200180831161019657829003601f168201915b505050505091508080548060200260200160405190810160405280929190818152602001828054801561020557602002820191906000526020600020905b8154815260200190600101908083116101f1575b5050505050905091509150915091565b60028351101561025a576040517f08c379a000000000000000000000000000000000000000000000000000000000815260040161025190611219565b60405180910390fd5b60008081548092919061026c90611268565b91905055506000600160008054815260200190815260200160002090506000548160000181905550848160010190816102a5919061145c565b50838160020190805190602001906102be9291906109c4565b50338160040160006101000a81548173ffffffffffffffffffffffffffffffffffffffff021916908373ffffffffffffffffffffffffffffffffffffffff160217905550828160040160146101000a81548160ff021916908360018111156103295761032861152e565b5b021790555060008160040160156101000a81548160ff021916908315150217905550835167ffffffffffffffff81111561036657610365610cf1565b5b6040519080825280602002602001820160405280156103945781602001602082028036833780820191505090505b508160030190805190602001906103ac929190610a1d565b50600060018111156103c1576103c061152e565b5b8360018111156103d4576103d361152e565b5b036104ac57600082511161041d576040517f08c379a0000000000000000000000000000000000000000000000000000000008152600401610414906115cf565b60405180910390fd5b60005b82518110156104aa576001826006016000858481518110610444576104436115ef565b5b602002602001015173ffffffffffffffffffffffffffffffffffffffff1673ffffffffffffffffffffffffffffffffffffffff16815260200190815260200160002060006101000a81548160ff0219169083151502179055508080600101915050610420565b505b6000547f1bc09f549a2646bbe5832d81ec585bb64498cd711f53b9b650bfe6048bb97b6c8686866040516104e293929190611772565b60405180910390a25050505050565b60005481565b806001600082815260200190815260200160002060040160009054906101000a900473ffffffffffffffffffffffffffffffffffffffff1673ffffffffffffffffffffffffffffffffffffffff163373ffffffffffffffffffffffffffffffffffffffff161461059c576040517f08c379a000000000000000000000000000000000000000000000000000000000815260040161059390611803565b60405180910390fd5b60006001600084815260200190815260200160002090508060040160009054906101000a900473ffffffffffffffffffffffffffffffffffffffff1673ffffffffffffffffffffffffffffffffffffffff163373ffffffffffffffffffffffffffffffffffffffff1614610645576040517f08c379a000000000000000000000000000000000000000000000000000000000815260040161063c9061186f565b60405180910390fd5b8060040160159054906101000a900460ff1615610697576040517f08c379a000000000000000000000000000000000000000000000000000000000815260040161068e906118db565b60405180910390fd5b60018160040160156101000a81548160ff021916908315150217905550827f703c67c157a1afb7d386ce5212ee88bf0a690bca998060e9595ebdfd747100ce60405160405180910390a2505050565b60006001600084815260200190815260200160002090508060040160159054906101000a900460ff161561074f576040517f08c379a000000000000000000000000000000000000000000000000000000000815260040161074690611947565b60405180910390fd5b80600201805490508210610798576040517f08c379a000000000000000000000000000000000000000000000000000000000815260040161078f906119b3565b60405180910390fd5b8060050160003373ffffffffffffffffffffffffffffffffffffffff1673ffffffffffffffffffffffffffffffffffffffff16815260200190815260200160002060009054906101000a900460ff1615610827576040517f08c379a000000000000000000000000000000000000000000000000000000000815260040161081e90611a1f565b60405180910390fd5b6000600181111561083b5761083a61152e565b5b8160040160149054906101000a900460ff16600181111561085f5761085e61152e565b5b036108f3578060060160003373ffffffffffffffffffffffffffffffffffffffff1673ffffffffffffffffffffffffffffffffffffffff16815260200190815260200160002060009054906101000a900460ff166108f2576040517f08c379a00000000000000000000000000000000000000000000000000000000081526004016108e990611ab1565b60405180910390fd5b5b600181600301838154811061090b5761090a6115ef565b5b9060005260206000200160008282546109249190611ad1565b9250508190555060018160050160003373ffffffffffffffffffffffffffffffffffffffff1673ffffffffffffffffffffffffffffffffffffffff16815260200190815260200160002060006101000a81548160ff021916908315150217905550827fd91ecafccf238642dccd41161308b3eebe62a12bc5819daf5164780c221ec95b83336040516109b7929190611b14565b60405180910390a2505050565b828054828255906000526020600020908101928215610a0c579160200282015b82811115610a0b5782518290816109fb919061145c565b50916020019190600101906109e4565b5b509050610a199190610a6a565b5090565b828054828255906000526020600020908101928215610a59579160200282015b82811115610a58578251825591602001919060010190610a3d565b5b509050610a669190610a8e565b5090565b5b80821115610a8a5760008181610a819190610aab565b50600101610a6b565b5090565b5b80821115610aa7576000816000905550600101610a8f565b5090565b508054610ab79061119c565b6000825580601f10610ac95750610ae8565b601f016020900490600052602060002090810190610ae79190610a8e565b5b50565b6000604051905090565b600080fd5b600080fd5b6000819050919050565b610b1281610aff565b8114610b1d57600080fd5b50565b600081359050610b2f81610b09565b92915050565b600060208284031215610b4b57610b4a610af5565b5b6000610b5984828501610b20565b91505092915050565b600081519050919050565b600082825260208201905092915050565b60005b83811015610b9c578082015181840152602081019050610b81565b60008484015250505050565b6000601f19601f8301169050919050565b6000610bc482610b62565b610bce8185610b6d565b9350610bde818560208601610b7e565b610be781610ba8565b840191505092915050565b600081519050919050565b600082825260208201905092915050565b6000819050602082019050919050565b610c2781610aff565b82525050565b6000610c398383610c1e565b60208301905092915050565b6000602082019050919050565b6000610c5d82610bf2565b610c678185610bfd565b9350610c7283610c0e565b8060005b83811015610ca3578151610c8a8882610c2d565b9750610c9583610c45565b925050600181019050610c76565b5085935050505092915050565b60006040820190508181036000830152610cca8185610bb9565b90508181036020830152610cde8184610c52565b90509392505050565b600080fd5b600080fd5b7f4e487b7100000000000000000000000000000000000000000000000000000000600052604160045260246000fd5b610d2982610ba8565b810181811067ffffffffffffffff82111715610d4857610d47610cf1565b5b80604052505050565b6000610d5b610aeb565b9050610d678282610d20565b919050565b600067ffffffffffffffff821115610d8757610d86610cf1565b5b610d9082610ba8565b9050602081019050919050565b82818337600083830152505050565b6000610dbf610dba84610d6c565b610d51565b905082815260208101848484011115610ddb57610dda610cec565b5b610de6848285610d9d565b509392505050565b600082601f830112610e0357610e02610ce7565b5b8135610e13848260208601610dac565b91505092915050565b600067ffffffffffffffff821115610e3757610e36610cf1565b5b602082029050602081019050919050565b600080fd5b6000610e60610e5b84610e1c565b610d51565b90508083825260208201905060208402830185811115610e8357610e82610e48565b5b835b81811015610eca57803567ffffffffffffffff811115610ea857610ea7610ce7565b5b808601610eb58982610dee565b85526020850194505050602081019050610e85565b5050509392505050565b600082601f830112610ee957610ee8610ce7565b5b8135610ef9848260208601610e4d565b91505092915050565b60028110610f0f57600080fd5b50565b600081359050610f2181610f02565b92915050565b600067ffffffffffffffff821115610f4257610f41610cf1565b5b602082029050602081019050919050565b600073ffffffffffffffffffffffffffffffffffffffff82169050919050565b6000610f7e82610f53565b9050919050565b610f8e81610f73565b8114610f9957600080fd5b50565b600081359050610fab81610f85565b92915050565b6000610fc4610fbf84610f27565b610d51565b90508083825260208201905060208402830185811115610fe757610fe6610e48565b5b835b818110156110105780610ffc8882610f9c565b845260208401935050602081019050610fe9565b5050509392505050565b600082601f83011261102f5761102e610ce7565b5b813561103f848260208601610fb1565b91505092915050565b6000806000806080858703121561106257611061610af5565b5b600085013567ffffffffffffffff8111156110805761107f610afa565b5b61108c87828801610dee565b945050602085013567ffffffffffffffff8111156110ad576110ac610afa565b5b6110b987828801610ed4565b93505060406110ca87828801610f12565b925050606085013567ffffffffffffffff8111156110eb576110ea610afa565b5b6110f78782880161101a565b91505092959194509250565b61110c81610aff565b82525050565b60006020820190506111276000830184611103565b92915050565b6000806040838503121561114457611143610af5565b5b600061115285828601610b20565b925050602061116385828601610b20565b9150509250929050565b7f4e487b7100000000000000000000000000000000000000000000000000000000600052602260045260246000fd5b600060028204905060018216806111b457607f821691505b6020821081036111c7576111c661116d565b5b50919050565b7f4d7573742068617665206174206c656173742032206f7074696f6e7300000000600082015250565b6000611203601c83610b6d565b915061120e826111cd565b602082019050919050565b60006020820190508181036000830152611232816111f6565b9050919050565b7f4e487b7100000000000000000000000000000000000000000000000000000000600052601160045260246000fd5b600061127382610aff565b91507fffffffffffffffffffffffffffffffffffffffffffffffffffffffffffffffff82036112a5576112a4611239565b5b600182019050919050565b60008190508160005260206000209050919050565b60006020601f8301049050919050565b600082821b905092915050565b6000600883026113127fffffffffffffffffffffffffffffffffffffffffffffffffffffffffffffffff826112d5565b61131c86836112d5565b95508019841693508086168417925050509392505050565b6000819050919050565b600061135961135461134f84610aff565b611334565b610aff565b9050919050565b6000819050919050565b6113738361133e565b61138761137f82611360565b8484546112e2565b825550505050565b600090565b61139c61138f565b6113a781848461136a565b505050565b5b818110156113cb576113c0600082611394565b6001810190506113ad565b5050565b601f821115611410576113e1816112b0565b6113ea846112c5565b810160208510156113f9578190505b61140d611405856112c5565b8301826113ac565b50505b505050565b600082821c905092915050565b600061143360001984600802611415565b1980831691505092915050565b600061144c8383611422565b9150826002028217905092915050565b61146582610b62565b67ffffffffffffffff81111561147e5761147d610cf1565b5b611488825461119c565b6114938282856113cf565b600060209050601f8311600181146114c657600084156114b4578287015190505b6114be8582611440565b865550611526565b601f1984166114d4866112b0565b60005b828110156114fc578489015182556001820191506020850194506020810190506114d7565b868310156115195784890151611515601f891682611422565b8355505b6001600288020188555050505b505050505050565b7f4e487b7100000000000000000000000000000000000000000000000000000000600052602160045260246000fd5b7f77686974656c69737420697320726571756972656420666f722070726976617460008201527f6520706f6c6c7300000000000000000000000000000000000000000000000000602082015250565b60006115b9602783610b6d565b91506115c48261155d565b604082019050919050565b600060208201905081810360008301526115e8816115ac565b9050919050565b7f4e487b7100000000000000000000000000000000000000000000000000000000600052603260045260246000fd5b600081519050919050565b600082825260208201905092915050565b6000819050602082019050919050565b600082825260208201905092915050565b600061166682610b62565b611670818561164a565b9350611680818560208601610b7e565b61168981610ba8565b840191505092915050565b60006116a0838361165b565b905092915050565b6000602082019050919050565b60006116c08261161e565b6116ca8185611629565b9350836020820285016116dc8561163a565b8060005b8581101561171857848403895281516116f98582611694565b9450611704836116a8565b925060208a019950506001810190506116e0565b50829750879550505050505092915050565b6002811061173b5761173a61152e565b5b50565b600081905061174c8261172a565b919050565b600061175c8261173e565b9050919050565b61176c81611751565b82525050565b6000606082019050818103600083015261178c8186610bb9565b905081810360208301526117a081856116b5565b90506117af6040830184611763565b949350505050565b7f4e6f7420706f6c6c2063726561746f7200000000000000000000000000000000600082015250565b60006117ed601083610b6d565b91506117f8826117b7565b602082019050919050565b6000602082019050818103600083015261181c816117e0565b9050919050565b7f4f6e6c792063726561746f722063616e20636c6f736520706f6c6c0000000000600082015250565b6000611859601b83610b6d565b915061186482611823565b602082019050919050565b600060208201905081810360008301526118888161184c565b9050919050565b7f506f6c6c20616c726561647920636c6f73656400000000000000000000000000600082015250565b60006118c5601383610b6d565b91506118d08261188f565b602082019050919050565b600060208201905081810360008301526118f4816118b8565b9050919050565b7f506f6c6c20697320636c6f736564000000000000000000000000000000000000600082015250565b6000611931600e83610b6d565b915061193c826118fb565b602082019050919050565b6000602082019050818103600083015261196081611924565b9050919050565b7f496e76616c6964206f7074696f6e000000000000000000000000000000000000600082015250565b600061199d600e83610b6d565b91506119a882611967565b602082019050919050565b600060208201905081810360008301526119cc81611990565b9050919050565b7f416c726561647920766f74656400000000000000000000000000000000000000600082015250565b6000611a09600d83610b6d565b9150611a14826119d3565b602082019050919050565b60006020820190508181036000830152611a38816119fc565b9050919050565b7f4e6f7420617574686f72697a656420746f20766f746520696e2074686973207060008201527f6f6c6c0000000000000000000000000000000000000000000000000000000000602082015250565b6000611a9b602383610b6d565b9150611aa682611a3f565b604082019050919050565b60006020820190508181036000830152611aca81611a8e565b9050919050565b6000611adc82610aff565b9150611ae783610aff565b9250828201905080821115611aff57611afe611239565b5b92915050565b611b0e81610f73565b82525050565b6000604082019050611b296000830185611103565b611b366020830184611b05565b939250505056fea264697066735822122001d8e411f6c114b416aef06ec12eabc422b30c27ade6c47921a378435827c18364736f6c634300081c0033",
  "linkReferences": {},
  "deployedLinkReferences": {}
}