{"contracts/predixPredictions.sol":{"PredixPredictionMarket":{"abi":[{"anonymous":false,"inputs":[{"indexed":true,"internalType":"uint256","name":"marketId","type":"uint256"},{"indexed":false,"internalType":"uint256","name":"optionIndex","type":"uint256"},{"indexed":true,"internalType":"address","name":"bettor","type":"address"},{"indexed":false,"internalType":"uint256","name":"amount","type":"uint256"}],"name":"BetPlaced","type":"event"},{"anonymous":false,"inputs":[{"indexed":true,"internalType":"uint256","name":"marketId","type":"uint256"},{"indexed":false,"internalType":"string","name":"question","type":"string"},{"indexed":false,"internalType":"uint256","name":"pollId","type":"uint256"},{"indexed":false,"internalType":"string[]","name":"options","type":"string[]"}],"name":"MarketCreated","type":"event"},{"anonymous":false,"inputs":[{"indexed":true,"internalType":"uint256","name":"marketId","type":"uint256"},{"indexed":false,"internalType":"uint256","name":"winningOption","type":"uint256"}],"name":"MarketResolved","type":"event"},{"inputs":[{"internalType":"uint256","name":"_marketId","type":"uint256"}],"name":"claimReward","outputs":[],"stateMutability":"nonpayable","type":"function"},{"inputs":[{"internalType":"string","name":"_question","type":"string"},{"internalType":"uint256","name":"_pollId","type":"uint256"},{"internalType":"string[]","name":"_options","type":"string[]"}],"name":"createMarket","outputs":[],"stateMutability":"nonpayable","type":"function"},{"inputs":[],"name":"marketCount","outputs":[{"internalType":"uint256","name":"","type":"uint256"}],"stateMutability":"view","type":"function"},{"inputs":[{"internalType":"uint256","name":"_marketId","type":"uint256"},{"internalType":"uint256","name":"_optionIndex","type":"uint256"}],"name":"placeBet","outputs":[],"stateMutability":"payable","type":"function"},{"inputs":[{"internalType":"uint256","name":"_marketId","type":"uint256"},{"internalType":"uint256","name":"_winningOption","type":"uint256"}],"name":"resolveMarket","outputs":[],"stateMutability":"nonpayable","type":"function"}],"evm":{"bytecode":{"linkReferences":{},"object":"6080604052348015600f57600080fd5b506115ee8061001f6000396000f3fe60806040526004361061004a5760003560e01c80634afe62b51461004f578063605573331461006b578063ae169a5014610094578063c3fc0775146100bd578063ec979082146100e6575b600080fd5b61006960048036038101906100649190610923565b610111565b005b34801561007757600080fd5b50610092600480360381019061008d9190610923565b610317565b005b3480156100a057600080fd5b506100bb60048036038101906100b69190610963565b61042c565b005b3480156100c957600080fd5b506100e460048036038101906100df9190610bbc565b610622565b005b3480156100f257600080fd5b506100fb6107ac565b6040516101089190610c56565b60405180910390f35b60006001600084815260200190815260200160002090508060060160009054906101000a900460ff161561017a576040517f08c379a000000000000000000000000000000000000000000000000000000000815260040161017190610cce565b60405180910390fd5b806003018054905082106101c3576040517f08c379a00000000000000000000000000000000000000000000000000000000081526004016101ba90610d3a565b60405180910390fd5b60003411610206576040517f08c379a00000000000000000000000000000000000000000000000000000000081526004016101fd90610da6565b60405180910390fd5b3481600401838154811061021d5761021c610dc6565b5b9060005260206000200160008282546102369190610e24565b925050819055503481600801600084815260200190815260200160002060003373ffffffffffffffffffffffffffffffffffffffff1673ffffffffffffffffffffffffffffffffffffffff168152602001908152602001600020600082825461029f9190610e24565b92505081905550348160050160008282546102ba9190610e24565b925050819055503373ffffffffffffffffffffffffffffffffffffffff16837ffdd8ed02332acacb3420e7345a9adadb30877075eade2bcde9fe778e8bb71e42843460405161030a929190610e58565b60405180910390a3505050565b60006001600084815260200190815260200160002090508060060160009054906101000a900460ff1615610380576040517f08c379a000000000000000000000000000000000000000000000000000000000815260040161037790610ecd565b60405180910390fd5b806003018054905082106103c9576040517f08c379a00000000000000000000000000000000000000000000000000000000081526004016103c090610d3a565b60405180910390fd5b60018160060160006101000a81548160ff021916908315150217905550818160070181905550827f6dfc24f0f2fb42e49fb4fa3ffa8abb148cab908a1fb8335b3f128a08b2594af18360405161041f9190610c56565b60405180910390a2505050565b60006001600083815260200190815260200160002090508060060160009054906101000a900460ff16610494576040517f08c379a000000000000000000000000000000000000000000000000000000000815260040161048b90610f39565b60405180910390fd5b600081600701549050600082600801600083815260200190815260200160002060003373ffffffffffffffffffffffffffffffffffffffff1673ffffffffffffffffffffffffffffffffffffffff16815260200190815260200160002054905060008111610537576040517f08c379a000000000000000000000000000000000000000000000000000000000815260040161052e90610fa5565b60405180910390fd5b600083600401838154811061054f5761054e610dc6565b5b9060005260206000200154905060008185600501548461056f9190610fc5565b6105799190611036565b9050600085600801600086815260200190815260200160002060003373ffffffffffffffffffffffffffffffffffffffff1673ffffffffffffffffffffffffffffffffffffffff168152602001908152602001600020819055503373ffffffffffffffffffffffffffffffffffffffff166108fc829081150290604051600060405180830381858888f19350505050158015610619573d6000803e3d6000fd5b50505050505050565b600281511015610667576040517f08c379a000000000000000000000000000000000000000000000000000000000815260040161065e906110b3565b60405180910390fd5b600080815480929190610679906110d3565b91905055506000600160008054815260200190815260200160002090506000548160000181905550838160010190816106b29190611332565b50828160020181905550818160030190805190602001906106d49291906107b2565b50815167ffffffffffffffff8111156106f0576106ef6109ab565b5b60405190808252806020026020018201604052801561071e5781602001602082028036833780820191505090505b5081600401908051906020019061073692919061080b565b5060008160060160006101000a81548160ff02191690831515021790555060008160070181905550600081600501819055506000547fa7f456b477c9ecdb734f57d15717b05772fbc9081fc7d3fd2e9cb61a1995050a85858560405161079e93929190611573565b60405180910390a250505050565b60005481565b8280548282559060005260206000209081019282156107fa579160200282015b828111156107f95782518290816107e99190611332565b50916020019190600101906107d2565b5b5090506108079190610858565b5090565b828054828255906000526020600020908101928215610847579160200282015b8281111561084657825182559160200191906001019061082b565b5b509050610854919061087c565b5090565b5b80821115610878576000818161086f9190610899565b50600101610859565b5090565b5b8082111561089557600081600090555060010161087d565b5090565b5080546108a590611155565b6000825580601f106108b757506108d6565b601f0160209004906000526020600020908101906108d5919061087c565b5b50565b6000604051905090565b600080fd5b600080fd5b6000819050919050565b610900816108ed565b811461090b57600080fd5b50565b60008135905061091d816108f7565b92915050565b6000806040838503121561093a576109396108e3565b5b60006109488582860161090e565b92505060206109598582860161090e565b9150509250929050565b600060208284031215610979576109786108e3565b5b60006109878482850161090e565b91505092915050565b600080fd5b600080fd5b6000601f19601f8301169050919050565b7f4e487b7100000000000000000000000000000000000000000000000000000000600052604160045260246000fd5b6109e38261099a565b810181811067ffffffffffffffff82111715610a0257610a016109ab565b5b80604052505050565b6000610a156108d9565b9050610a2182826109da565b919050565b600067ffffffffffffffff821115610a4157610a406109ab565b5b610a4a8261099a565b9050602081019050919050565b82818337600083830152505050565b6000610a79610a7484610a26565b610a0b565b905082815260208101848484011115610a9557610a94610995565b5b610aa0848285610a57565b509392505050565b600082601f830112610abd57610abc610990565b5b8135610acd848260208601610a66565b91505092915050565b600067ffffffffffffffff821115610af157610af06109ab565b5b602082029050602081019050919050565b600080fd5b6000610b1a610b1584610ad6565b610a0b565b90508083825260208201905060208402830185811115610b3d57610b3c610b02565b5b835b81811015610b8457803567ffffffffffffffff811115610b6257610b61610990565b5b808601610b6f8982610aa8565b85526020850194505050602081019050610b3f565b5050509392505050565b600082601f830112610ba357610ba2610990565b5b8135610bb3848260208601610b07565b91505092915050565b600080600060608486031215610bd557610bd46108e3565b5b600084013567ffffffffffffffff811115610bf357610bf26108e8565b5b610bff86828701610aa8565b9350506020610c108682870161090e565b925050604084013567ffffffffffffffff811115610c3157610c306108e8565b5b610c3d86828701610b8e565b9150509250925092565b610c50816108ed565b82525050565b6000602082019050610c6b6000830184610c47565b92915050565b600082825260208201905092915050565b7f4d61726b6574206973207265736f6c7665640000000000000000000000000000600082015250565b6000610cb8601283610c71565b9150610cc382610c82565b602082019050919050565b60006020820190508181036000830152610ce781610cab565b9050919050565b7f496e76616c6964206f7074696f6e000000000000000000000000000000000000600082015250565b6000610d24600e83610c71565b9150610d2f82610cee565b602082019050919050565b60006020820190508181036000830152610d5381610d17565b9050919050565b7f42657420616d6f756e74206d757374206265203e203000000000000000000000600082015250565b6000610d90601683610c71565b9150610d9b82610d5a565b602082019050919050565b60006020820190508181036000830152610dbf81610d83565b9050919050565b7f4e487b7100000000000000000000000000000000000000000000000000000000600052603260045260246000fd5b7f4e487b7100000000000000000000000000000000000000000000000000000000600052601160045260246000fd5b6000610e2f826108ed565b9150610e3a836108ed565b9250828201905080821115610e5257610e51610df5565b5b92915050565b6000604082019050610e6d6000830185610c47565b610e7a6020830184610c47565b9392505050565b7f4d61726b657420616c7265616479207265736f6c766564000000000000000000600082015250565b6000610eb7601783610c71565b9150610ec282610e81565b602082019050919050565b60006020820190508181036000830152610ee681610eaa565b9050919050565b7f4d61726b6574206e6f74207265736f6c76656420796574000000000000000000600082015250565b6000610f23601783610c71565b9150610f2e82610eed565b602082019050919050565b60006020820190508181036000830152610f5281610f16565b9050919050565b7f4e6f2077696e6e696e672062657420746f20636c61696d000000000000000000600082015250565b6000610f8f601783610c71565b9150610f9a82610f59565b602082019050919050565b60006020820190508181036000830152610fbe81610f82565b9050919050565b6000610fd0826108ed565b9150610fdb836108ed565b9250828202610fe9816108ed565b9150828204841483151761100057610fff610df5565b5b5092915050565b7f4e487b7100000000000000000000000000000000000000000000000000000000600052601260045260246000fd5b6000611041826108ed565b915061104c836108ed565b92508261105c5761105b611007565b5b828204905092915050565b7f4174206c656173742074776f206f7074696f6e73207265717569726564000000600082015250565b600061109d601d83610c71565b91506110a882611067565b602082019050919050565b600060208201905081810360008301526110cc81611090565b9050919050565b60006110de826108ed565b91507fffffffffffffffffffffffffffffffffffffffffffffffffffffffffffffffff82036111105761110f610df5565b5b600182019050919050565b600081519050919050565b7f4e487b7100000000000000000000000000000000000000000000000000000000600052602260045260246000fd5b6000600282049050600182168061116d57607f821691505b6020821081036111805761117f611126565b5b50919050565b60008190508160005260206000209050919050565b60006020601f8301049050919050565b600082821b905092915050565b6000600883026111e87fffffffffffffffffffffffffffffffffffffffffffffffffffffffffffffffff826111ab565b6111f286836111ab565b95508019841693508086168417925050509392505050565b6000819050919050565b600061122f61122a611225846108ed565b61120a565b6108ed565b9050919050565b6000819050919050565b61124983611214565b61125d61125582611236565b8484546111b8565b825550505050565b600090565b611272611265565b61127d818484611240565b505050565b5b818110156112a15761129660008261126a565b600181019050611283565b5050565b601f8211156112e6576112b781611186565b6112c08461119b565b810160208510156112cf578190505b6112e36112db8561119b565b830182611282565b50505b505050565b600082821c905092915050565b6000611309600019846008026112eb565b1980831691505092915050565b600061132283836112f8565b9150826002028217905092915050565b61133b8261111b565b67ffffffffffffffff811115611354576113536109ab565b5b61135e8254611155565b6113698282856112a5565b600060209050601f83116001811461139c576000841561138a578287015190505b6113948582611316565b8655506113fc565b601f1984166113aa86611186565b60005b828110156113d2578489015182556001820191506020850194506020810190506113ad565b868310156113ef57848901516113eb601f8916826112f8565b8355505b6001600288020188555050505b505050505050565b60005b83811015611422578082015181840152602081019050611407565b60008484015250505050565b60006114398261111b565b6114438185610c71565b9350611453818560208601611404565b61145c8161099a565b840191505092915050565b600081519050919050565b600082825260208201905092915050565b6000819050602082019050919050565b600082825260208201905092915050565b60006114af8261111b565b6114b98185611493565b93506114c9818560208601611404565b6114d28161099a565b840191505092915050565b60006114e983836114a4565b905092915050565b6000602082019050919050565b600061150982611467565b6115138185611472565b93508360208202850161152585611483565b8060005b85811015611561578484038952815161154285826114dd565b945061154d836114f1565b925060208a01995050600181019050611529565b50829750879550505050505092915050565b6000606082019050818103600083015261158d818661142e565b905061159c6020830185610c47565b81810360408301526115ae81846114fe565b905094935050505056fea264697066735822122078a808d9b9292a31824ab7e7b8a07559ddb0e24765c1db7152ce6106abc2f60a64736f6c634300081c0033","opcodes":"PUSH1 0x80 PUSH1 0x40 MSTORE CALLVALUE DUP1 ISZERO PUSH1 0xF JUMPI PUSH1 0x0 DUP1 REVERT JUMPDEST POP PUSH2 0x15EE DUP1 PUSH2 0x1F PUSH1 0x0 CODECOPY PUSH1 0x0 RETURN INVALID PUSH1 0x80 PUSH1 0x40 MSTORE PUSH1 0x4 CALLDATASIZE LT PUSH2 0x4A JUMPI PUSH1 0x0 CALLDATALOAD PUSH1 0xE0 SHR DUP1 PUSH4 0x4AFE62B5 EQ PUSH2 0x4F JUMPI DUP1 PUSH4 0x60557333 EQ PUSH2 0x6B JUMPI DUP1 PUSH4 0xAE169A50 EQ PUSH2 0x94 JUMPI DUP1 PUSH4 0xC3FC0775 EQ PUSH2 0xBD JUMPI DUP1 PUSH4 0xEC979082 EQ PUSH2 0xE6 JUMPI JUMPDEST PUSH1 0x0 DUP1 REVERT JUMPDEST PUSH2 0x69 PUSH1 0x4 DUP1 CALLDATASIZE SUB DUP2 ADD SWAP1 PUSH2 0x64 SWAP2 SWAP1 PUSH2 0x923 JUMP JUMPDEST PUSH2 0x111 JUMP JUMPDEST STOP JUMPDEST CALLVALUE DUP1 ISZERO PUSH2 0x77 JUMPI PUSH1 0x0 DUP1 REVERT JUMPDEST POP PUSH2 0x92 PUSH1 0x4 DUP1 CALLDATASIZE SUB DUP2 ADD SWAP1 PUSH2 0x8D SWAP2 SWAP1 PUSH2 0x923 JUMP JUMPDEST PUSH2 0x317 JUMP JUMPDEST STOP JUMPDEST CALLVALUE DUP1 ISZERO PUSH2 0xA0 JUMPI PUSH1 0x0 DUP1 REVERT JUMPDEST POP PUSH2 0xBB PUSH1 0x4 DUP1 CALLDATASIZE SUB DUP2 ADD SWAP1 PUSH2 0xB6 SWAP2 SWAP1 PUSH2 0x963 JUMP JUMPDEST PUSH2 0x42C JUMP JUMPDEST STOP JUMPDEST CALLVALUE DUP1 ISZERO PUSH2 0xC9 JUMPI PUSH1 0x0 DUP1 REVERT JUMPDEST POP PUSH2 0xE4 PUSH1 0x4 DUP1 CALLDATASIZE SUB DUP2 ADD SWAP1 PUSH2 0xDF SWAP2 SWAP1 PUSH2 0xBBC JUMP JUMPDEST PUSH2 0x622 JUMP JUMPDEST STOP JUMPDEST CALLVALUE DUP1 ISZERO PUSH2 0xF2 JUMPI PUSH1 0x0 DUP1 REVERT JUMPDEST POP PUSH2 0xFB PUSH2 0x7AC JUMP JUMPDEST PUSH1 0x40 MLOAD PUSH2 0x108 SWAP2 SWAP1 PUSH2 0xC56 JUMP JUMPDEST PUSH1 0x40 MLOAD DUP1 SWAP2 SUB SWAP1 RETURN JUMPDEST PUSH1 0x0 PUSH1 0x1 PUSH1 0x0 DUP5 DUP2 MSTORE PUSH1 0x20 ADD SWAP1 DUP2 MSTORE PUSH1 0x20 ADD PUSH1 0x0 KECCAK256 SWAP1 POP DUP1 PUSH1 0x6 ADD PUSH1 0x0 SWAP1 SLOAD SWAP1 PUSH2 0x100 EXP SWAP1 DIV PUSH1 0xFF AND ISZERO PUSH2 0x17A JUMPI PUSH1 0x40 MLOAD PUSH32 0x8C379A000000000000000000000000000000000000000000000000000000000 DUP2 MSTORE PUSH1 0x4 ADD PUSH2 0x171 SWAP1 PUSH2 0xCCE JUMP JUMPDEST PUSH1 0x40 MLOAD DUP1 SWAP2 SUB SWAP1 REVERT JUMPDEST DUP1 PUSH1 0x3 ADD DUP1 SLOAD SWAP1 POP DUP3 LT PUSH2 0x1C3 JUMPI PUSH1 0x40 MLOAD PUSH32 0x8C379A000000000000000000000000000000000000000000000000000000000 DUP2 MSTORE PUSH1 0x4 ADD PUSH2 0x1BA SWAP1 PUSH2 0xD3A JUMP JUMPDEST PUSH1 0x40 MLOAD DUP1 SWAP2 SUB SWAP1 REVERT JUMPDEST PUSH1 0x0 CALLVALUE GT PUSH2 0x206 JUMPI PUSH1 0x40 MLOAD PUSH32 0x8C379A000000000000000000000000000000000000000000000000000000000 DUP2 MSTORE PUSH1 0x4 ADD PUSH2 0x1FD SWAP1 PUSH2 0xDA6 JUMP JUMPDEST PUSH1 0x40 MLOAD DUP1 SWAP2 SUB SWAP1 REVERT JUMPDEST CALLVALUE DUP2 PUSH1 0x4 ADD DUP4 DUP2 SLOAD DUP2 LT PUSH2 0x21D JUMPI PUSH2 0x21C PUSH2 0xDC6 JUMP JUMPDEST JUMPDEST SWAP1 PUSH1 0x0 MSTORE PUSH1 0x20 PUSH1 0x0 KECCAK256 ADD PUSH1 0x0 DUP3 DUP3 SLOAD PUSH2 0x236 SWAP2 SWAP1 PUSH2 0xE24 JUMP JUMPDEST SWAP3 POP POP DUP2 SWAP1 SSTORE POP CALLVALUE DUP2 PUSH1 0x8 ADD PUSH1 0x0 DUP5 DUP2 MSTORE PUSH1 0x20 ADD SWAP1 DUP2 MSTORE PUSH1 0x20 ADD PUSH1 0x0 KECCAK256 PUSH1 0x0 CALLER PUSH20 0xFFFFFFFFFFFFFFFFFFFFFFFFFFFFFFFFFFFFFFFF AND PUSH20 0xFFFFFFFFFFFFFFFFFFFFFFFFFFFFFFFFFFFFFFFF AND DUP2 MSTORE PUSH1 0x20 ADD SWAP1 DUP2 MSTORE PUSH1 0x20 ADD PUSH1 0x0 KECCAK256 PUSH1 0x0 DUP3 DUP3 SLOAD PUSH2 0x29F SWAP2 SWAP1 PUSH2 0xE24 JUMP JUMPDEST SWAP3 POP POP DUP2 SWAP1 SSTORE POP CALLVALUE DUP2 PUSH1 0x5 ADD PUSH1 0x0 DUP3 DUP3 SLOAD PUSH2 0x2BA SWAP2 SWAP1 PUSH2 0xE24 JUMP JUMPDEST SWAP3 POP POP DUP2 SWAP1 SSTORE POP CALLER PUSH20 0xFFFFFFFFFFFFFFFFFFFFFFFFFFFFFFFFFFFFFFFF AND DUP4 PUSH32 0xFDD8ED02332ACACB3420E7345A9ADADB30877075EADE2BCDE9FE778E8BB71E42 DUP5 CALLVALUE PUSH1 0x40 MLOAD PUSH2 0x30A SWAP3 SWAP2 SWAP1 PUSH2 0xE58 JUMP JUMPDEST PUSH1 0x40 MLOAD DUP1 SWAP2 SUB SWAP1 LOG3 POP POP POP JUMP JUMPDEST PUSH1 0x0 PUSH1 0x1 PUSH1 0x0 DUP5 DUP2 MSTORE PUSH1 0x20 ADD SWAP1 DUP2 MSTORE PUSH1 0x20 ADD PUSH1 0x0 KECCAK256 SWAP1 POP DUP1 PUSH1 0x6 ADD PUSH1 0x0 SWAP1 SLOAD SWAP1 PUSH2 0x100 EXP SWAP1 DIV PUSH1 0xFF AND ISZERO PUSH2 0x380 JUMPI PUSH1 0x40 MLOAD PUSH32 0x8C379A000000000000000000000000000000000000000000000000000000000 DUP2 MSTORE PUSH1 0x4 ADD PUSH2 0x377 SWAP1 PUSH2 0xECD JUMP JUMPDEST PUSH1 0x40 MLOAD DUP1 SWAP2 SUB SWAP1 REVERT JUMPDEST DUP1 PUSH1 0x3 ADD DUP1 SLOAD SWAP1 POP DUP3 LT PUSH2 0x3C9 JUMPI PUSH1 0x40 MLOAD PUSH32 0x8C379A000000000000000000000000000000000000000000000000000000000 DUP2 MSTORE PUSH1 0x4 ADD PUSH2 0x3C0 SWAP1 PUSH2 0xD3A JUMP JUMPDEST PUSH1 0x40 MLOAD DUP1 SWAP2 SUB SWAP1 REVERT JUMPDEST PUSH1 0x1 DUP2 PUSH1 0x6 ADD PUSH1 0x0 PUSH2 0x100 EXP DUP2 SLOAD DUP2 PUSH1 0xFF MUL NOT AND SWAP1 DUP4 ISZERO ISZERO MUL OR SWAP1 SSTORE POP DUP2 DUP2 PUSH1 0x7 ADD DUP2 SWAP1 SSTORE POP DUP3 PUSH32 0x6DFC24F0F2FB42E49FB4FA3FFA8ABB148CAB908A1FB8335B3F128A08B2594AF1 DUP4 PUSH1 0x40 MLOAD PUSH2 0x41F SWAP2 SWAP1 PUSH2 0xC56 JUMP JUMPDEST PUSH1 0x40 MLOAD DUP1 SWAP2 SUB SWAP1 LOG2 POP POP POP JUMP JUMPDEST PUSH1 0x0 PUSH1 0x1 PUSH1 0x0 DUP4 DUP2 MSTORE PUSH1 0x20 ADD SWAP1 DUP2 MSTORE PUSH1 0x20 ADD PUSH1 0x0 KECCAK256 SWAP1 POP DUP1 PUSH1 0x6 ADD PUSH1 0x0 SWAP1 SLOAD SWAP1 PUSH2 0x100 EXP SWAP1 DIV PUSH1 0xFF AND PUSH2 0x494 JUMPI PUSH1 0x40 MLOAD PUSH32 0x8C379A000000000000000000000000000000000000000000000000000000000 DUP2 MSTORE PUSH1 0x4 ADD PUSH2 0x48B SWAP1 PUSH2 0xF39 JUMP JUMPDEST PUSH1 0x40 MLOAD DUP1 SWAP2 SUB SWAP1 REVERT JUMPDEST PUSH1 0x0 DUP2 PUSH1 0x7 ADD SLOAD SWAP1 POP PUSH1 0x0 DUP3 PUSH1 0x8 ADD PUSH1 0x0 DUP4 DUP2 MSTORE PUSH1 0x20 ADD SWAP1 DUP2 MSTORE PUSH1 0x20 ADD PUSH1 0x0 KECCAK256 PUSH1 0x0 CALLER PUSH20 0xFFFFFFFFFFFFFFFFFFFFFFFFFFFFFFFFFFFFFFFF AND PUSH20 0xFFFFFFFFFFFFFFFFFFFFFFFFFFFFFFFFFFFFFFFF AND DUP2 MSTORE PUSH1 0x20 ADD SWAP1 DUP2 MSTORE PUSH1 0x20 ADD PUSH1 0x0 KECCAK256 SLOAD SWAP1 POP PUSH1 0x0 DUP2 GT PUSH2 0x537 JUMPI PUSH1 0x40 MLOAD PUSH32 0x8C379A000000000000000000000000000000000000000000000000000000000 DUP2 MSTORE PUSH1 0x4 ADD PUSH2 0x52E SWAP1 PUSH2 0xFA5 JUMP JUMPDEST PUSH1 0x40 MLOAD DUP1 SWAP2 SUB SWAP1 REVERT JUMPDEST PUSH1 0x0 DUP4 PUSH1 0x4 ADD DUP4 DUP2 SLOAD DUP2 LT PUSH2 0x54F JUMPI PUSH2 0x54E PUSH2 0xDC6 JUMP JUMPDEST JUMPDEST SWAP1 PUSH1 0x0 MSTORE PUSH1 0x20 PUSH1 0x0 KECCAK256 ADD SLOAD SWAP1 POP PUSH1 0x0 DUP2 DUP6 PUSH1 0x5 ADD SLOAD DUP5 PUSH2 0x56F SWAP2 SWAP1 PUSH2 0xFC5 JUMP JUMPDEST PUSH2 0x579 SWAP2 SWAP1 PUSH2 0x1036 JUMP JUMPDEST SWAP1 POP PUSH1 0x0 DUP6 PUSH1 0x8 ADD PUSH1 0x0 DUP7 DUP2 MSTORE PUSH1 0x20 ADD SWAP1 DUP2 MSTORE PUSH1 0x20 ADD PUSH1 0x0 KECCAK256 PUSH1 0x0 CALLER PUSH20 0xFFFFFFFFFFFFFFFFFFFFFFFFFFFFFFFFFFFFFFFF AND PUSH20 0xFFFFFFFFFFFFFFFFFFFFFFFFFFFFFFFFFFFFFFFF AND DUP2 MSTORE PUSH1 0x20 ADD SWAP1 DUP2 MSTORE PUSH1 0x20 ADD PUSH1 0x0 KECCAK256 DUP2 SWAP1 SSTORE POP CALLER PUSH20 0xFFFFFFFFFFFFFFFFFFFFFFFFFFFFFFFFFFFFFFFF AND PUSH2 0x8FC DUP3 SWAP1 DUP2 ISZERO MUL SWAP1 PUSH1 0x40 MLOAD PUSH1 0x0 PUSH1 0x40 MLOAD DUP1 DUP4 SUB DUP2 DUP6 DUP9 DUP9 CALL SWAP4 POP POP POP POP ISZERO DUP1 ISZERO PUSH2 0x619 JUMPI RETURNDATASIZE PUSH1 0x0 DUP1 RETURNDATACOPY RETURNDATASIZE PUSH1 0x0 REVERT JUMPDEST POP POP POP POP POP POP POP JUMP JUMPDEST PUSH1 0x2 DUP2 MLOAD LT ISZERO PUSH2 0x667 JUMPI PUSH1 0x40 MLOAD PUSH32 0x8C379A000000000000000000000000000000000000000000000000000000000 DUP2 MSTORE PUSH1 0x4 ADD PUSH2 0x65E SWAP1 PUSH2 0x10B3 JUMP JUMPDEST PUSH1 0x40 MLOAD DUP1 SWAP2 SUB SWAP1 REVERT JUMPDEST PUSH1 0x0 DUP1 DUP2 SLOAD DUP1 SWAP3 SWAP2 SWAP1 PUSH2 0x679 SWAP1 PUSH2 0x10D3 JUMP JUMPDEST SWAP2 SWAP1 POP SSTORE POP PUSH1 0x0 PUSH1 0x1 PUSH1 0x0 DUP1 SLOAD DUP2 MSTORE PUSH1 0x20 ADD SWAP1 DUP2 MSTORE PUSH1 0x20 ADD PUSH1 0x0 KECCAK256 SWAP1 POP PUSH1 0x0 SLOAD DUP2 PUSH1 0x0 ADD DUP2 SWAP1 SSTORE POP DUP4 DUP2 PUSH1 0x1 ADD SWAP1 DUP2 PUSH2 0x6B2 SWAP2 SWAP1 PUSH2 0x1332 JUMP JUMPDEST POP DUP3 DUP2 PUSH1 0x2 ADD DUP2 SWAP1 SSTORE POP DUP2 DUP2 PUSH1 0x3 ADD SWAP1 DUP1 MLOAD SWAP1 PUSH1 0x20 ADD SWAP1 PUSH2 0x6D4 SWAP3 SWAP2 SWAP1 PUSH2 0x7B2 JUMP JUMPDEST POP DUP2 MLOAD PUSH8 0xFFFFFFFFFFFFFFFF DUP2 GT ISZERO PUSH2 0x6F0 JUMPI PUSH2 0x6EF PUSH2 0x9AB JUMP JUMPDEST JUMPDEST PUSH1 0x40 MLOAD SWAP1 DUP1 DUP3 MSTORE DUP1 PUSH1 0x20 MUL PUSH1 0x20 ADD DUP3 ADD PUSH1 0x40 MSTORE DUP1 ISZERO PUSH2 0x71E JUMPI DUP2 PUSH1 0x20 ADD PUSH1 0x20 DUP3 MUL DUP1 CALLDATASIZE DUP4 CALLDATACOPY DUP1 DUP3 ADD SWAP2 POP POP SWAP1 POP JUMPDEST POP DUP2 PUSH1 0x4 ADD SWAP1 DUP1 MLOAD SWAP1 PUSH1 0x20 ADD SWAP1 PUSH2 0x736 SWAP3 SWAP2 SWAP1 PUSH2 0x80B JUMP JUMPDEST POP PUSH1 0x0 DUP2 PUSH1 0x6 ADD PUSH1 0x0 PUSH2 0x100 EXP DUP2 SLOAD DUP2 PUSH1 0xFF MUL NOT AND SWAP1 DUP4 ISZERO ISZERO MUL OR SWAP1 SSTORE POP PUSH1 0x0 DUP2 PUSH1 0x7 ADD DUP2 SWAP1 SSTORE POP PUSH1 0x0 DUP2 PUSH1 0x5 ADD DUP2 SWAP1 SSTORE POP PUSH1 0x0 SLOAD PUSH32 0xA7F456B477C9ECDB734F57D15717B05772FBC9081FC7D3FD2E9CB61A1995050A DUP6 DUP6 DUP6 PUSH1 0x40 MLOAD PUSH2 0x79E SWAP4 SWAP3 SWAP2 SWAP1 PUSH2 0x1573 JUMP JUMPDEST PUSH1 0x40 MLOAD DUP1 SWAP2 SUB SWAP1 LOG2 POP POP POP POP JUMP JUMPDEST PUSH1 0x0 SLOAD DUP2 JUMP JUMPDEST DUP3 DUP1 SLOAD DUP3 DUP3 SSTORE SWAP1 PUSH1 0x0 MSTORE PUSH1 0x20 PUSH1 0x0 KECCAK256 SWAP1 DUP2 ADD SWAP3 DUP3 ISZERO PUSH2 0x7FA JUMPI SWAP2 PUSH1 0x20 MUL DUP3 ADD JUMPDEST DUP3 DUP2 GT ISZERO PUSH2 0x7F9 JUMPI DUP3 MLOAD DUP3 SWAP1 DUP2 PUSH2 0x7E9 SWAP2 SWAP1 PUSH2 0x1332 JUMP JUMPDEST POP SWAP2 PUSH1 0x20 ADD SWAP2 SWAP1 PUSH1 0x1 ADD SWAP1 PUSH2 0x7D2 JUMP JUMPDEST JUMPDEST POP SWAP1 POP PUSH2 0x807 SWAP2 SWAP1 PUSH2 0x858 JUMP JUMPDEST POP SWAP1 JUMP JUMPDEST DUP3 DUP1 SLOAD DUP3 DUP3 SSTORE SWAP1 PUSH1 0x0 MSTORE PUSH1 0x20 PUSH1 0x0 KECCAK256 SWAP1 DUP2 ADD SWAP3 DUP3 ISZERO PUSH2 0x847 JUMPI SWAP2 PUSH1 0x20 MUL DUP3 ADD JUMPDEST DUP3 DUP2 GT ISZERO PUSH2 0x846 JUMPI DUP3 MLOAD DUP3 SSTORE SWAP2 PUSH1 0x20 ADD SWAP2 SWAP1 PUSH1 0x1 ADD SWAP1 PUSH2 0x82B JUMP JUMPDEST JUMPDEST POP SWAP1 POP PUSH2 0x854 SWAP2 SWAP1 PUSH2 0x87C JUMP JUMPDEST POP SWAP1 JUMP JUMPDEST JUMPDEST DUP1 DUP3 GT ISZERO PUSH2 0x878 JUMPI PUSH1 0x0 DUP2 DUP2 PUSH2 0x86F SWAP2 SWAP1 PUSH2 0x899 JUMP JUMPDEST POP PUSH1 0x1 ADD PUSH2 0x859 JUMP JUMPDEST POP SWAP1 JUMP JUMPDEST JUMPDEST DUP1 DUP3 GT ISZERO PUSH2 0x895 JUMPI PUSH1 0x0 DUP2 PUSH1 0x0 SWAP1 SSTORE POP PUSH1 0x1 ADD PUSH2 0x87D JUMP JUMPDEST POP SWAP1 JUMP JUMPDEST POP DUP1 SLOAD PUSH2 0x8A5 SWAP1 PUSH2 0x1155 JUMP JUMPDEST PUSH1 0x0 DUP3 SSTORE DUP1 PUSH1 0x1F LT PUSH2 0x8B7 JUMPI POP PUSH2 0x8D6 JUMP JUMPDEST PUSH1 0x1F ADD PUSH1 0x20 SWAP1 DIV SWAP1 PUSH1 0x0 MSTORE PUSH1 0x20 PUSH1 0x0 KECCAK256 SWAP1 DUP2 ADD SWAP1 PUSH2 0x8D5 SWAP2 SWAP1 PUSH2 0x87C JUMP JUMPDEST JUMPDEST POP JUMP JUMPDEST PUSH1 0x0 PUSH1 0x40 MLOAD SWAP1 POP SWAP1 JUMP JUMPDEST PUSH1 0x0 DUP1 REVERT JUMPDEST PUSH1 0x0 DUP1 REVERT JUMPDEST PUSH1 0x0 DUP2 SWAP1 POP SWAP2 SWAP1 POP JUMP JUMPDEST PUSH2 0x900 DUP2 PUSH2 0x8ED JUMP JUMPDEST DUP2 EQ PUSH2 0x90B JUMPI PUSH1 0x0 DUP1 REVERT JUMPDEST POP JUMP JUMPDEST PUSH1 0x0 DUP2 CALLDATALOAD SWAP1 POP PUSH2 0x91D DUP2 PUSH2 0x8F7 JUMP JUMPDEST SWAP3 SWAP2 POP POP JUMP JUMPDEST PUSH1 0x0 DUP1 PUSH1 0x40 DUP4 DUP6 SUB SLT ISZERO PUSH2 0x93A JUMPI PUSH2 0x939 PUSH2 0x8E3 JUMP JUMPDEST JUMPDEST PUSH1 0x0 PUSH2 0x948 DUP6 DUP3 DUP7 ADD PUSH2 0x90E JUMP JUMPDEST SWAP3 POP POP PUSH1 0x20 PUSH2 0x959 DUP6 DUP3 DUP7 ADD PUSH2 0x90E JUMP JUMPDEST SWAP2 POP POP SWAP3 POP SWAP3 SWAP1 POP JUMP JUMPDEST PUSH1 0x0 PUSH1 0x20 DUP3 DUP5 SUB SLT ISZERO PUSH2 0x979 JUMPI PUSH2 0x978 PUSH2 0x8E3 JUMP JUMPDEST JUMPDEST PUSH1 0x0 PUSH2 0x987 DUP5 DUP3 DUP6 ADD PUSH2 0x90E JUMP JUMPDEST SWAP2 POP POP SWAP3 SWAP2 POP POP JUMP JUMPDEST PUSH1 0x0 DUP1 REVERT JUMPDEST PUSH1 0x0 DUP1 REVERT JUMPDEST PUSH1 0x0 PUSH1 0x1F NOT PUSH1 0x1F DUP4 ADD AND SWAP1 POP SWAP2 SWAP1 POP JUMP JUMPDEST PUSH32 0x4E487B7100000000000000000000000000000000000000000000000000000000 PUSH1 0x0 MSTORE PUSH1 0x41 PUSH1 0x4 MSTORE PUSH1 0x24 PUSH1 0x0 REVERT JUMPDEST PUSH2 0x9E3 DUP3 PUSH2 0x99A JUMP JUMPDEST DUP2 ADD DUP2 DUP2 LT PUSH8 0xFFFFFFFFFFFFFFFF DUP3 GT OR ISZERO PUSH2 0xA02 JUMPI PUSH2 0xA01 PUSH2 0x9AB JUMP JUMPDEST JUMPDEST DUP1 PUSH1 0x40 MSTORE POP POP POP JUMP JUMPDEST PUSH1 0x0 PUSH2 0xA15 PUSH2 0x8D9 JUMP JUMPDEST SWAP1 POP PUSH2 0xA21 DUP3 DUP3 PUSH2 0x9DA JUMP JUMPDEST SWAP2 SWAP1 POP JUMP JUMPDEST PUSH1 0x0 PUSH8 0xFFFFFFFFFFFFFFFF DUP3 GT ISZERO PUSH2 0xA41 JUMPI PUSH2 0xA40 PUSH2 0x9AB JUMP JUMPDEST JUMPDEST PUSH2 0xA4A DUP3 PUSH2 0x99A JUMP JUMPDEST SWAP1 POP PUSH1 0x20 DUP2 ADD SWAP1 POP SWAP2 SWAP1 POP JUMP JUMPDEST DUP3 DUP2 DUP4 CALLDATACOPY PUSH1 0x0 DUP4 DUP4 ADD MSTORE POP POP POP JUMP JUMPDEST PUSH1 0x0 PUSH2 0xA79 PUSH2 0xA74 DUP5 PUSH2 0xA26 JUMP JUMPDEST PUSH2 0xA0B JUMP JUMPDEST SWAP1 POP DUP3 DUP2 MSTORE PUSH1 0x20 DUP2 ADD DUP5 DUP5 DUP5 ADD GT ISZERO PUSH2 0xA95 JUMPI PUSH2 0xA94 PUSH2 0x995 JUMP JUMPDEST JUMPDEST PUSH2 0xAA0 DUP5 DUP3 DUP6 PUSH2 0xA57 JUMP JUMPDEST POP SWAP4 SWAP3 POP POP POP JUMP JUMPDEST PUSH1 0x0 DUP3 PUSH1 0x1F DUP4 ADD SLT PUSH2 0xABD JUMPI PUSH2 0xABC PUSH2 0x990 JUMP JUMPDEST JUMPDEST DUP2 CALLDATALOAD PUSH2 0xACD DUP5 DUP3 PUSH1 0x20 DUP7 ADD PUSH2 0xA66 JUMP JUMPDEST SWAP2 POP POP SWAP3 SWAP2 POP POP JUMP JUMPDEST PUSH1 0x0 PUSH8 0xFFFFFFFFFFFFFFFF DUP3 GT ISZERO PUSH2 0xAF1 JUMPI PUSH2 0xAF0 PUSH2 0x9AB JUMP JUMPDEST JUMPDEST PUSH1 0x20 DUP3 MUL SWAP1 POP PUSH1 0x20 DUP2 ADD SWAP1 POP SWAP2 SWAP1 POP JUMP JUMPDEST PUSH1 0x0 DUP1 REVERT JUMPDEST PUSH1 0x0 PUSH2 0xB1A PUSH2 0xB15 DUP5 PUSH2 0xAD6 JUMP JUMPDEST PUSH2 0xA0B JUMP JUMPDEST SWAP1 POP DUP1 DUP4 DUP3 MSTORE PUSH1 0x20 DUP3 ADD SWAP1 POP PUSH1 0x20 DUP5 MUL DUP4 ADD DUP6 DUP2 GT ISZERO PUSH2 0xB3D JUMPI PUSH2 0xB3C PUSH2 0xB02 JUMP JUMPDEST JUMPDEST DUP4 JUMPDEST DUP2 DUP2 LT ISZERO PUSH2 0xB84 JUMPI DUP1 CALLDATALOAD PUSH8 0xFFFFFFFFFFFFFFFF DUP2 GT ISZERO PUSH2 0xB62 JUMPI PUSH2 0xB61 PUSH2 0x990 JUMP JUMPDEST JUMPDEST DUP1 DUP7 ADD PUSH2 0xB6F DUP10 DUP3 PUSH2 0xAA8 JUMP JUMPDEST DUP6 MSTORE PUSH1 0x20 DUP6 ADD SWAP5 POP POP POP PUSH1 0x20 DUP2 ADD SWAP1 POP PUSH2 0xB3F JUMP JUMPDEST POP POP POP SWAP4 SWAP3 POP POP POP JUMP JUMPDEST PUSH1 0x0 DUP3 PUSH1 0x1F DUP4 ADD SLT PUSH2 0xBA3 JUMPI PUSH2 0xBA2 PUSH2 0x990 JUMP JUMPDEST JUMPDEST DUP2 CALLDATALOAD PUSH2 0xBB3 DUP5 DUP3 PUSH1 0x20 DUP7 ADD PUSH2 0xB07 JUMP JUMPDEST SWAP2 POP POP SWAP3 SWAP2 POP POP JUMP JUMPDEST PUSH1 0x0 DUP1 PUSH1 0x0 PUSH1 0x60 DUP5 DUP7 SUB SLT ISZERO PUSH2 0xBD5 JUMPI PUSH2 0xBD4 PUSH2 0x8E3 JUMP JUMPDEST JUMPDEST PUSH1 0x0 DUP5 ADD CALLDATALOAD PUSH8 0xFFFFFFFFFFFFFFFF DUP2 GT ISZERO PUSH2 0xBF3 JUMPI PUSH2 0xBF2 PUSH2 0x8E8 JUMP JUMPDEST JUMPDEST PUSH2 0xBFF DUP7 DUP3 DUP8 ADD PUSH2 0xAA8 JUMP JUMPDEST SWAP4 POP POP PUSH1 0x20 PUSH2 0xC10 DUP7 DUP3 DUP8 ADD PUSH2 0x90E JUMP JUMPDEST SWAP3 POP POP PUSH1 0x40 DUP5 ADD CALLDATALOAD PUSH8 0xFFFFFFFFFFFFFFFF DUP2 GT ISZERO PUSH2 0xC31 JUMPI PUSH2 0xC30 PUSH2 0x8E8 JUMP JUMPDEST JUMPDEST PUSH2 0xC3D DUP7 DUP3 DUP8 ADD PUSH2 0xB8E JUMP JUMPDEST SWAP2 POP POP SWAP3 POP SWAP3 POP SWAP3 JUMP JUMPDEST PUSH2 0xC50 DUP2 PUSH2 0x8ED JUMP JUMPDEST DUP3 MSTORE POP POP JUMP JUMPDEST PUSH1 0x0 PUSH1 0x20 DUP3 ADD SWAP1 POP PUSH2 0xC6B PUSH1 0x0 DUP4 ADD DUP5 PUSH2 0xC47 JUMP JUMPDEST SWAP3 SWAP2 POP POP JUMP JUMPDEST PUSH1 0x0 DUP3 DUP3 MSTORE PUSH1 0x20 DUP3 ADD SWAP1 POP SWAP3 SWAP2 POP POP JUMP JUMPDEST PUSH32 0x4D61726B6574206973207265736F6C7665640000000000000000000000000000 PUSH1 0x0 DUP3 ADD MSTORE POP JUMP JUMPDEST PUSH1 0x0 PUSH2 0xCB8 PUSH1 0x12 DUP4 PUSH2 0xC71 JUMP JUMPDEST SWAP2 POP PUSH2 0xCC3 DUP3 PUSH2 0xC82 JUMP JUMPDEST PUSH1 0x20 DUP3 ADD SWAP1 POP SWAP2 SWAP1 POP JUMP JUMPDEST PUSH1 0x0 PUSH1 0x20 DUP3 ADD SWAP1 POP DUP2 DUP2 SUB PUSH1 0x0 DUP4 ADD MSTORE PUSH2 0xCE7 DUP2 PUSH2 0xCAB JUMP JUMPDEST SWAP1 POP SWAP2 SWAP1 POP JUMP JUMPDEST PUSH32 0x496E76616C6964206F7074696F6E000000000000000000000000000000000000 PUSH1 0x0 DUP3 ADD MSTORE POP JUMP JUMPDEST PUSH1 0x0 PUSH2 0xD24 PUSH1 0xE DUP4 PUSH2 0xC71 JUMP JUMPDEST SWAP2 POP PUSH2 0xD2F DUP3 PUSH2 0xCEE JUMP JUMPDEST PUSH1 0x20 DUP3 ADD SWAP1 POP SWAP2 SWAP1 POP JUMP JUMPDEST PUSH1 0x0 PUSH1 0x20 DUP3 ADD SWAP1 POP DUP2 DUP2 SUB PUSH1 0x0 DUP4 ADD MSTORE PUSH2 0xD53 DUP2 PUSH2 0xD17 JUMP JUMPDEST SWAP1 POP SWAP2 SWAP1 POP JUMP JUMPDEST PUSH32 0x42657420616D6F756E74206D757374206265203E203000000000000000000000 PUSH1 0x0 DUP3 ADD MSTORE POP JUMP JUMPDEST PUSH1 0x0 PUSH2 0xD90 PUSH1 0x16 DUP4 PUSH2 0xC71 JUMP JUMPDEST SWAP2 POP PUSH2 0xD9B DUP3 PUSH2 0xD5A JUMP JUMPDEST PUSH1 0x20 DUP3 ADD SWAP1 POP SWAP2 SWAP1 POP JUMP JUMPDEST PUSH1 0x0 PUSH1 0x20 DUP3 ADD SWAP1 POP DUP2 DUP2 SUB PUSH1 0x0 DUP4 ADD MSTORE PUSH2 0xDBF DUP2 PUSH2 0xD83 JUMP JUMPDEST SWAP1 POP SWAP2 SWAP1 POP JUMP JUMPDEST PUSH32 0x4E487B7100000000000000000000000000000000000000000000000000000000 PUSH1 0x0 MSTORE PUSH1 0x32 PUSH1 0x4 MSTORE PUSH1 0x24 PUSH1 0x0 REVERT JUMPDEST PUSH32 0x4E487B7100000000000000000000000000000000000000000000000000000000 PUSH1 0x0 MSTORE PUSH1 0x11 PUSH1 0x4 MSTORE PUSH1 0x24 PUSH1 0x0 REVERT JUMPDEST PUSH1 0x0 PUSH2 0xE2F DUP3 PUSH2 0x8ED JUMP JUMPDEST SWAP2 POP PUSH2 0xE3A DUP4 PUSH2 0x8ED JUMP JUMPDEST SWAP3 POP DUP3 DUP3 ADD SWAP1 POP DUP1 DUP3 GT ISZERO PUSH2 0xE52 JUMPI PUSH2 0xE51 PUSH2 0xDF5 JUMP JUMPDEST JUMPDEST SWAP3 SWAP2 POP POP JUMP JUMPDEST PUSH1 0x0 PUSH1 0x40 DUP3 ADD SWAP1 POP PUSH2 0xE6D PUSH1 0x0 DUP4 ADD DUP6 PUSH2 0xC47 JUMP JUMPDEST PUSH2 0xE7A PUSH1 0x20 DUP4 ADD DUP5 PUSH2 0xC47 JUMP JUMPDEST SWAP4 SWAP3 POP POP POP JUMP JUMPDEST PUSH32 0x4D61726B657420616C7265616479207265736F6C766564000000000000000000 PUSH1 0x0 DUP3 ADD MSTORE POP JUMP JUMPDEST PUSH1 0x0 PUSH2 0xEB7 PUSH1 0x17 DUP4 PUSH2 0xC71 JUMP JUMPDEST SWAP2 POP PUSH2 0xEC2 DUP3 PUSH2 0xE81 JUMP JUMPDEST PUSH1 0x20 DUP3 ADD SWAP1 POP SWAP2 SWAP1 POP JUMP JUMPDEST PUSH1 0x0 PUSH1 0x20 DUP3 ADD SWAP1 POP DUP2 DUP2 SUB PUSH1 0x0 DUP4 ADD MSTORE PUSH2 0xEE6 DUP2 PUSH2 0xEAA JUMP JUMPDEST SWAP1 POP SWAP2 SWAP1 POP JUMP JUMPDEST PUSH32 0x4D61726B6574206E6F74207265736F6C76656420796574000000000000000000 PUSH1 0x0 DUP3 ADD MSTORE POP JUMP JUMPDEST PUSH1 0x0 PUSH2 0xF23 PUSH1 0x17 DUP4 PUSH2 0xC71 JUMP JUMPDEST SWAP2 POP PUSH2 0xF2E DUP3 PUSH2 0xEED JUMP JUMPDEST PUSH1 0x20 DUP3 ADD SWAP1 POP SWAP2 SWAP1 POP JUMP JUMPDEST PUSH1 0x0 PUSH1 0x20 DUP3 ADD SWAP1 POP DUP2 DUP2 SUB PUSH1 0x0 DUP4 ADD MSTORE PUSH2 0xF52 DUP2 PUSH2 0xF16 JUMP JUMPDEST SWAP1 POP SWAP2 SWAP1 POP JUMP JUMPDEST PUSH32 0x4E6F2077696E6E696E672062657420746F20636C61696D000000000000000000 PUSH1 0x0 DUP3 ADD MSTORE POP JUMP JUMPDEST PUSH1 0x0 PUSH2 0xF8F PUSH1 0x17 DUP4 PUSH2 0xC71 JUMP JUMPDEST SWAP2 POP PUSH2 0xF9A DUP3 PUSH2 0xF59 JUMP JUMPDEST PUSH1 0x20 DUP3 ADD SWAP1 POP SWAP2 SWAP1 POP JUMP JUMPDEST PUSH1 0x0 PUSH1 0x20 DUP3 ADD SWAP1 POP DUP2 DUP2 SUB PUSH1 0x0 DUP4 ADD MSTORE PUSH2 0xFBE DUP2 PUSH2 0xF82 JUMP JUMPDEST SWAP1 POP SWAP2 SWAP1 POP JUMP JUMPDEST PUSH1 0x0 PUSH2 0xFD0 DUP3 PUSH2 0x8ED JUMP JUMPDEST SWAP2 POP PUSH2 0xFDB DUP4 PUSH2 0x8ED JUMP JUMPDEST SWAP3 POP DUP3 DUP3 MUL PUSH2 0xFE9 DUP2 PUSH2 0x8ED JUMP JUMPDEST SWAP2 POP DUP3 DUP3 DIV DUP5 EQ DUP4 ISZERO OR PUSH2 0x1000 JUMPI PUSH2 0xFFF PUSH2 0xDF5 JUMP JUMPDEST JUMPDEST POP SWAP3 SWAP2 POP POP JUMP JUMPDEST PUSH32 0x4E487B7100000000000000000000000000000000000000000000000000000000 PUSH1 0x0 MSTORE PUSH1 0x12 PUSH1 0x4 MSTORE PUSH1 0x24 PUSH1 0x0 REVERT JUMPDEST PUSH1 0x0 PUSH2 0x1041 DUP3 PUSH2 0x8ED JUMP JUMPDEST SWAP2 POP PUSH2 0x104C DUP4 PUSH2 0x8ED JUMP JUMPDEST SWAP3 POP DUP3 PUSH2 0x105C JUMPI PUSH2 0x105B PUSH2 0x1007 JUMP JUMPDEST JUMPDEST DUP3 DUP3 DIV SWAP1 POP SWAP3 SWAP2 POP POP JUMP JUMPDEST PUSH32 0x4174206C656173742074776F206F7074696F6E73207265717569726564000000 PUSH1 0x0 DUP3 ADD MSTORE POP JUMP JUMPDEST PUSH1 0x0 PUSH2 0x109D PUSH1 0x1D DUP4 PUSH2 0xC71 JUMP JUMPDEST SWAP2 POP PUSH2 0x10A8 DUP3 PUSH2 0x1067 JUMP JUMPDEST PUSH1 0x20 DUP3 ADD SWAP1 POP SWAP2 SWAP1 POP JUMP JUMPDEST PUSH1 0x0 PUSH1 0x20 DUP3 ADD SWAP1 POP DUP2 DUP2 SUB PUSH1 0x0 DUP4 ADD MSTORE PUSH2 0x10CC DUP2 PUSH2 0x1090 JUMP JUMPDEST SWAP1 POP SWAP2 SWAP1 POP JUMP JUMPDEST PUSH1 0x0 PUSH2 0x10DE DUP3 PUSH2 0x8ED JUMP JUMPDEST SWAP2 POP PUSH32 0xFFFFFFFFFFFFFFFFFFFFFFFFFFFFFFFFFFFFFFFFFFFFFFFFFFFFFFFFFFFFFFFF DUP3 SUB PUSH2 0x1110 JUMPI PUSH2 0x110F PUSH2 0xDF5 JUMP JUMPDEST JUMPDEST PUSH1 0x1 DUP3 ADD SWAP1 POP SWAP2 SWAP1 POP JUMP JUMPDEST PUSH1 0x0 DUP2 MLOAD SWAP1 POP SWAP2 SWAP1 POP JUMP JUMPDEST PUSH32 0x4E487B7100000000000000000000000000000000000000000000000000000000 PUSH1 0x0 MSTORE PUSH1 0x22 PUSH1 0x4 MSTORE PUSH1 0x24 PUSH1 0x0 REVERT JUMPDEST PUSH1 0x0 PUSH1 0x2 DUP3 DIV SWAP1 POP PUSH1 0x1 DUP3 AND DUP1 PUSH2 0x116D JUMPI PUSH1 0x7F DUP3 AND SWAP2 POP JUMPDEST PUSH1 0x20 DUP3 LT DUP2 SUB PUSH2 0x1180 JUMPI PUSH2 0x117F PUSH2 0x1126 JUMP JUMPDEST JUMPDEST POP SWAP2 SWAP1 POP JUMP JUMPDEST PUSH1 0x0 DUP2 SWAP1 POP DUP2 PUSH1 0x0 MSTORE PUSH1 0x20 PUSH1 0x0 KECCAK256 SWAP1 POP SWAP2 SWAP1 POP JUMP JUMPDEST PUSH1 0x0 PUSH1 0x20 PUSH1 0x1F DUP4 ADD DIV SWAP1 POP SWAP2 SWAP1 POP JUMP JUMPDEST PUSH1 0x0 DUP3 DUP3 SHL SWAP1 POP SWAP3 SWAP2 POP POP JUMP JUMPDEST PUSH1 0x0 PUSH1 0x8 DUP4 MUL PUSH2 0x11E8 PUSH32 0xFFFFFFFFFFFFFFFFFFFFFFFFFFFFFFFFFFFFFFFFFFFFFFFFFFFFFFFFFFFFFFFF DUP3 PUSH2 0x11AB JUMP JUMPDEST PUSH2 0x11F2 DUP7 DUP4 PUSH2 0x11AB JUMP JUMPDEST SWAP6 POP DUP1 NOT DUP5 AND SWAP4 POP DUP1 DUP7 AND DUP5 OR SWAP3 POP POP POP SWAP4 SWAP3 POP POP POP JUMP JUMPDEST PUSH1 0x0 DUP2 SWAP1 POP SWAP2 SWAP1 POP JUMP JUMPDEST PUSH1 0x0 PUSH2 0x122F PUSH2 0x122A PUSH2 0x1225 DUP5 PUSH2 0x8ED JUMP JUMPDEST PUSH2 0x120A JUMP JUMPDEST PUSH2 0x8ED JUMP JUMPDEST SWAP1 POP SWAP2 SWAP1 POP JUMP JUMPDEST PUSH1 0x0 DUP2 SWAP1 POP SWAP2 SWAP1 POP JUMP JUMPDEST PUSH2 0x1249 DUP4 PUSH2 0x1214 JUMP JUMPDEST PUSH2 0x125D PUSH2 0x1255 DUP3 PUSH2 0x1236 JUMP JUMPDEST DUP5 DUP5 SLOAD PUSH2 0x11B8 JUMP JUMPDEST DUP3 SSTORE POP POP POP POP JUMP JUMPDEST PUSH1 0x0 SWAP1 JUMP JUMPDEST PUSH2 0x1272 PUSH2 0x1265 JUMP JUMPDEST PUSH2 0x127D DUP2 DUP5 DUP5 PUSH2 0x1240 JUMP JUMPDEST POP POP POP JUMP JUMPDEST JUMPDEST DUP2 DUP2 LT ISZERO PUSH2 0x12A1 JUMPI PUSH2 0x1296 PUSH1 0x0 DUP3 PUSH2 0x126A JUMP JUMPDEST PUSH1 0x1 DUP2 ADD SWAP1 POP PUSH2 0x1283 JUMP JUMPDEST POP POP JUMP JUMPDEST PUSH1 0x1F DUP3 GT ISZERO PUSH2 0x12E6 JUMPI PUSH2 0x12B7 DUP2 PUSH2 0x1186 JUMP JUMPDEST PUSH2 0x12C0 DUP5 PUSH2 0x119B JUMP JUMPDEST DUP2 ADD PUSH1 0x20 DUP6 LT ISZERO PUSH2 0x12CF JUMPI DUP2 SWAP1 POP JUMPDEST PUSH2 0x12E3 PUSH2 0x12DB DUP6 PUSH2 0x119B JUMP JUMPDEST DUP4 ADD DUP3 PUSH2 0x1282 JUMP JUMPDEST POP POP JUMPDEST POP POP POP JUMP JUMPDEST PUSH1 0x0 DUP3 DUP3 SHR SWAP1 POP SWAP3 SWAP2 POP POP JUMP JUMPDEST PUSH1 0x0 PUSH2 0x1309 PUSH1 0x0 NOT DUP5 PUSH1 0x8 MUL PUSH2 0x12EB JUMP JUMPDEST NOT DUP1 DUP4 AND SWAP2 POP POP SWAP3 SWAP2 POP POP JUMP JUMPDEST PUSH1 0x0 PUSH2 0x1322 DUP4 DUP4 PUSH2 0x12F8 JUMP JUMPDEST SWAP2 POP DUP3 PUSH1 0x2 MUL DUP3 OR SWAP1 POP SWAP3 SWAP2 POP POP JUMP JUMPDEST PUSH2 0x133B DUP3 PUSH2 0x111B JUMP JUMPDEST PUSH8 0xFFFFFFFFFFFFFFFF DUP2 GT ISZERO PUSH2 0x1354 JUMPI PUSH2 0x1353 PUSH2 0x9AB JUMP JUMPDEST JUMPDEST PUSH2 0x135E DUP3 SLOAD PUSH2 0x1155 JUMP JUMPDEST PUSH2 0x1369 DUP3 DUP3 DUP6 PUSH2 0x12A5 JUMP JUMPDEST PUSH1 0x0 PUSH1 0x20 SWAP1 POP PUSH1 0x1F DUP4 GT PUSH1 0x1 DUP2 EQ PUSH2 0x139C JUMPI PUSH1 0x0 DUP5 ISZERO PUSH2 0x138A JUMPI DUP3 DUP8 ADD MLOAD SWAP1 POP JUMPDEST PUSH2 0x1394 DUP6 DUP3 PUSH2 0x1316 JUMP JUMPDEST DUP7 SSTORE POP PUSH2 0x13FC JUMP JUMPDEST PUSH1 0x1F NOT DUP5 AND PUSH2 0x13AA DUP7 PUSH2 0x1186 JUMP JUMPDEST PUSH1 0x0 JUMPDEST DUP3 DUP2 LT ISZERO PUSH2 0x13D2 JUMPI DUP5 DUP10 ADD MLOAD DUP3 SSTORE PUSH1 0x1 DUP3 ADD SWAP2 POP PUSH1 0x20 DUP6 ADD SWAP5 POP PUSH1 0x20 DUP2 ADD SWAP1 POP PUSH2 0x13AD JUMP JUMPDEST DUP7 DUP4 LT ISZERO PUSH2 0x13EF JUMPI DUP5 DUP10 ADD MLOAD PUSH2 0x13EB PUSH1 0x1F DUP10 AND DUP3 PUSH2 0x12F8 JUMP JUMPDEST DUP4 SSTORE POP JUMPDEST PUSH1 0x1 PUSH1 0x2 DUP9 MUL ADD DUP9 SSTORE POP POP POP JUMPDEST POP POP POP POP POP POP JUMP JUMPDEST PUSH1 0x0 JUMPDEST DUP4 DUP2 LT ISZERO PUSH2 0x1422 JUMPI DUP1 DUP3 ADD MLOAD DUP2 DUP5 ADD MSTORE PUSH1 0x20 DUP2 ADD SWAP1 POP PUSH2 0x1407 JUMP JUMPDEST PUSH1 0x0 DUP5 DUP5 ADD MSTORE POP POP POP POP JUMP JUMPDEST PUSH1 0x0 PUSH2 0x1439 DUP3 PUSH2 0x111B JUMP JUMPDEST PUSH2 0x1443 DUP2 DUP6 PUSH2 0xC71 JUMP JUMPDEST SWAP4 POP PUSH2 0x1453 DUP2 DUP6 PUSH1 0x20 DUP7 ADD PUSH2 0x1404 JUMP JUMPDEST PUSH2 0x145C DUP2 PUSH2 0x99A JUMP JUMPDEST DUP5 ADD SWAP2 POP POP SWAP3 SWAP2 POP POP JUMP JUMPDEST PUSH1 0x0 DUP2 MLOAD SWAP1 POP SWAP2 SWAP1 POP JUMP JUMPDEST PUSH1 0x0 DUP3 DUP3 MSTORE PUSH1 0x20 DUP3 ADD SWAP1 POP SWAP3 SWAP2 POP POP JUMP JUMPDEST PUSH1 0x0 DUP2 SWAP1 POP PUSH1 0x20 DUP3 ADD SWAP1 POP SWAP2 SWAP1 POP JUMP JUMPDEST PUSH1 0x0 DUP3 DUP3 MSTORE PUSH1 0x20 DUP3 ADD SWAP1 POP SWAP3 SWAP2 POP POP JUMP JUMPDEST PUSH1 0x0 PUSH2 0x14AF DUP3 PUSH2 0x111B JUMP JUMPDEST PUSH2 0x14B9 DUP2 DUP6 PUSH2 0x1493 JUMP JUMPDEST SWAP4 POP PUSH2 0x14C9 DUP2 DUP6 PUSH1 0x20 DUP7 ADD PUSH2 0x1404 JUMP JUMPDEST PUSH2 0x14D2 DUP2 PUSH2 0x99A JUMP JUMPDEST DUP5 ADD SWAP2 POP POP SWAP3 SWAP2 POP POP JUMP JUMPDEST PUSH1 0x0 PUSH2 0x14E9 DUP4 DUP4 PUSH2 0x14A4 JUMP JUMPDEST SWAP1 POP SWAP3 SWAP2 POP POP JUMP JUMPDEST PUSH1 0x0 PUSH1 0x20 DUP3 ADD SWAP1 POP SWAP2 SWAP1 POP JUMP JUMPDEST PUSH1 0x0 PUSH2 0x1509 DUP3 PUSH2 0x1467 JUMP JUMPDEST PUSH2 0x1513 DUP2 DUP6 PUSH2 0x1472 JUMP JUMPDEST SWAP4 POP DUP4 PUSH1 0x20 DUP3 MUL DUP6 ADD PUSH2 0x1525 DUP6 PUSH2 0x1483 JUMP JUMPDEST DUP1 PUSH1 0x0 JUMPDEST DUP6 DUP2 LT ISZERO PUSH2 0x1561 JUMPI DUP5 DUP5 SUB DUP10 MSTORE DUP2 MLOAD PUSH2 0x1542 DUP6 DUP3 PUSH2 0x14DD JUMP JUMPDEST SWAP5 POP PUSH2 0x154D DUP4 PUSH2 0x14F1 JUMP JUMPDEST SWAP3 POP PUSH1 0x20 DUP11 ADD SWAP10 POP POP PUSH1 0x1 DUP2 ADD SWAP1 POP PUSH2 0x1529 JUMP JUMPDEST POP DUP3 SWAP8 POP DUP8 SWAP6 POP POP POP POP POP POP SWAP3 SWAP2 POP POP JUMP JUMPDEST PUSH1 0x0 PUSH1 0x60 DUP3 ADD SWAP1 POP DUP2 DUP2 SUB PUSH1 0x0 DUP4 ADD MSTORE PUSH2 0x158D DUP2 DUP7 PUSH2 0x142E JUMP JUMPDEST SWAP1 POP PUSH2 0x159C PUSH1 0x20 DUP4 ADD DUP6 PUSH2 0xC47 JUMP JUMPDEST DUP2 DUP2 SUB PUSH1 0x40 DUP4 ADD MSTORE PUSH2 0x15AE DUP2 DUP5 PUSH2 0x14FE JUMP JUMPDEST SWAP1 POP SWAP5 SWAP4 POP POP POP POP JUMP INVALID LOG2 PUSH5 0x6970667358 0x22 SLT KECCAK256 PUSH25 0xA808D9B9292A31824AB7E7B8A07559DDB0E24765C1DB7152CE PUSH2 0x6AB 0xC2 0xF6 EXP PUSH5 0x736F6C6343 STOP ADDMOD SHR STOP CALLER "},"methodIdentifiers":{"claimReward(uint256)":"ae169a50","createMarket(string,uint256,string[])":"c3fc0775","marketCount()":"ec979082","placeBet(uint256,uint256)":"4afe62b5","resolveMarket(uint256,uint256)":"60557333"}}}}}