{
  "_format": "hh-sol-artifact-1",
  "contractName": "PredixPredictionMarket",
  "sourceName": "contracts/predixMarkets.sol",
  "abi": [
    {
      "anonymous": false,
      "inputs": [
        {
          "indexed": true,
          "internalType": "uint256",
          "name": "marketId",
          "type": "uint256"
        },
        {
          "indexed": false,
          "internalType": "uint256",
          "name": "optionIndex",
          "type": "uint256"
        },
        {
          "indexed": true,
          "internalType": "address",
          "name": "bettor",
          "type": "address"
        },
        {
          "indexed": false,
          "internalType": "uint256",
          "name": "amount",
          "type": "uint256"
        }
      ],
      "name": "BetPlaced",
      "type": "event"
    },
    {
      "anonymous": false,
      "inputs": [
        {
          "indexed": true,
          "internalType": "uint256",
          "name": "marketId",
          "type": "uint256"
        },
        {
          "indexed": false,
          "internalType": "string",
          "name": "question",
          "type": "string"
        },
        {
          "indexed": false,
          "internalType": "uint256",
          "name": "pollId",
          "type": "uint256"
        },
        {
          "indexed": false,
          "internalType": "string[]",
          "name": "options",
          "type": "string[]"
        }
      ],
      "name": "MarketCreated",
      "type": "event"
    },
    {
      "anonymous": false,
      "inputs": [
        {
          "indexed": true,
          "internalType": "uint256",
          "name": "marketId",
          "type": "uint256"
        },
        {
          "indexed": false,
          "internalType": "uint256",
          "name": "winningOption",
          "type": "uint256"
        }
      ],
      "name": "MarketResolved",
      "type": "event"
    },
    {
      "inputs": [
        {
          "internalType": "uint256",
          "name": "_marketId",
          "type": "uint256"
        }
      ],
      "name": "claimReward",
      "outputs": [],
      "stateMutability": "nonpayable",
      "type": "function"
    },
    {
      "inputs": [
        {
          "internalType": "string",
          "name": "_question",
          "type": "string"
        },
        {
          "internalType": "uint256",
          "name": "_pollId",
          "type": "uint256"
        },
        {
          "internalType": "string[]",
          "name": "_options",
          "type": "string[]"
        }
      ],
      "name": "createMarket",
      "outputs": [],
      "stateMutability": "nonpayable",
      "type": "function"
    },
    {
      "inputs": [],
      "name": "marketCount",
      "outputs": [
        {
          "internalType": "uint256",
          "name": "",
          "type": "uint256"
        }
      ],
      "stateMutability": "view",
      "type": "function"
    },
    {
      "inputs": [
        {
          "internalType": "uint256",
          "name": "_marketId",
          "type": "uint256"
        },
        {
          "internalType": "uint256",
          "name": "_optionIndex",
          "type": "uint256"
        }
      ],
      "name": "placeBet",
      "outputs": [],
      "stateMutability": "payable",
      "type": "function"
    },
    {
      "inputs": [
        {
          "internalType": "uint256",
          "name": "_marketId",
          "type": "uint256"
        },
        {
          "internalType": "uint256",
          "name": "_winningOption",
          "type": "uint256"
        }
      ],
      "name": "resolveMarket",
      "outputs": [],
      "stateMutability": "nonpayable",
      "type": "function"
    }
  ],
  "bytecode": "0x6080604052348015600f57600080fd5b506115ee8061001f6000396000f3fe60806040526004361061004a5760003560e01c80634afe62b51461004f578063605573331461006b578063ae169a5014610094578063c3fc0775146100bd578063ec979082146100e6575b600080fd5b61006960048036038101906100649190610923565b610111565b005b34801561007757600080fd5b50610092600480360381019061008d9190610923565b610317565b005b3480156100a057600080fd5b506100bb60048036038101906100b69190610963565b61042c565b005b3480156100c957600080fd5b506100e460048036038101906100df9190610bbc565b610622565b005b3480156100f257600080fd5b506100fb6107ac565b6040516101089190610c56565b60405180910390f35b60006001600084815260200190815260200160002090508060060160009054906101000a900460ff161561017a576040517f08c379a000000000000000000000000000000000000000000000000000000000815260040161017190610cce565b60405180910390fd5b806003018054905082106101c3576040517f08c379a00000000000000000000000000000000000000000000000000000000081526004016101ba90610d3a565b60405180910390fd5b60003411610206576040517f08c379a00000000000000000000000000000000000000000000000000000000081526004016101fd90610da6565b60405180910390fd5b3481600401838154811061021d5761021c610dc6565b5b9060005260206000200160008282546102369190610e24565b925050819055503481600801600084815260200190815260200160002060003373ffffffffffffffffffffffffffffffffffffffff1673ffffffffffffffffffffffffffffffffffffffff168152602001908152602001600020600082825461029f9190610e24565b92505081905550348160050160008282546102ba9190610e24565b925050819055503373ffffffffffffffffffffffffffffffffffffffff16837ffdd8ed02332acacb3420e7345a9adadb30877075eade2bcde9fe778e8bb71e42843460405161030a929190610e58565b60405180910390a3505050565b60006001600084815260200190815260200160002090508060060160009054906101000a900460ff1615610380576040517f08c379a000000000000000000000000000000000000000000000000000000000815260040161037790610ecd565b60405180910390fd5b806003018054905082106103c9576040517f08c379a00000000000000000000000000000000000000000000000000000000081526004016103c090610d3a565b60405180910390fd5b60018160060160006101000a81548160ff021916908315150217905550818160070181905550827f6dfc24f0f2fb42e49fb4fa3ffa8abb148cab908a1fb8335b3f128a08b2594af18360405161041f9190610c56565b60405180910390a2505050565b60006001600083815260200190815260200160002090508060060160009054906101000a900460ff16610494576040517f08c379a000000000000000000000000000000000000000000000000000000000815260040161048b90610f39565b60405180910390fd5b600081600701549050600082600801600083815260200190815260200160002060003373ffffffffffffffffffffffffffffffffffffffff1673ffffffffffffffffffffffffffffffffffffffff16815260200190815260200160002054905060008111610537576040517f08c379a000000000000000000000000000000000000000000000000000000000815260040161052e90610fa5565b60405180910390fd5b600083600401838154811061054f5761054e610dc6565b5b9060005260206000200154905060008185600501548461056f9190610fc5565b6105799190611036565b9050600085600801600086815260200190815260200160002060003373ffffffffffffffffffffffffffffffffffffffff1673ffffffffffffffffffffffffffffffffffffffff168152602001908152602001600020819055503373ffffffffffffffffffffffffffffffffffffffff166108fc829081150290604051600060405180830381858888f19350505050158015610619573d6000803e3d6000fd5b50505050505050565b600281511015610667576040517f08c379a000000000000000000000000000000000000000000000000000000000815260040161065e906110b3565b60405180910390fd5b600080815480929190610679906110d3565b91905055506000600160008054815260200190815260200160002090506000548160000181905550838160010190816106b29190611332565b50828160020181905550818160030190805190602001906106d49291906107b2565b50815167ffffffffffffffff8111156106f0576106ef6109ab565b5b60405190808252806020026020018201604052801561071e5781602001602082028036833780820191505090505b5081600401908051906020019061073692919061080b565b5060008160060160006101000a81548160ff02191690831515021790555060008160070181905550600081600501819055506000547fa7f456b477c9ecdb734f57d15717b05772fbc9081fc7d3fd2e9cb61a1995050a85858560405161079e93929190611573565b60405180910390a250505050565b60005481565b8280548282559060005260206000209081019282156107fa579160200282015b828111156107f95782518290816107e99190611332565b50916020019190600101906107d2565b5b5090506108079190610858565b5090565b828054828255906000526020600020908101928215610847579160200282015b8281111561084657825182559160200191906001019061082b565b5b509050610854919061087c565b5090565b5b80821115610878576000818161086f9190610899565b50600101610859565b5090565b5b8082111561089557600081600090555060010161087d565b5090565b5080546108a590611155565b6000825580601f106108b757506108d6565b601f0160209004906000526020600020908101906108d5919061087c565b5b50565b6000604051905090565b600080fd5b600080fd5b6000819050919050565b610900816108ed565b811461090b57600080fd5b50565b60008135905061091d816108f7565b92915050565b6000806040838503121561093a576109396108e3565b5b60006109488582860161090e565b92505060206109598582860161090e565b9150509250929050565b600060208284031215610979576109786108e3565b5b60006109878482850161090e565b91505092915050565b600080fd5b600080fd5b6000601f19601f8301169050919050565b7f4e487b7100000000000000000000000000000000000000000000000000000000600052604160045260246000fd5b6109e38261099a565b810181811067ffffffffffffffff82111715610a0257610a016109ab565b5b80604052505050565b6000610a156108d9565b9050610a2182826109da565b919050565b600067ffffffffffffffff821115610a4157610a406109ab565b5b610a4a8261099a565b9050602081019050919050565b82818337600083830152505050565b6000610a79610a7484610a26565b610a0b565b905082815260208101848484011115610a9557610a94610995565b5b610aa0848285610a57565b509392505050565b600082601f830112610abd57610abc610990565b5b8135610acd848260208601610a66565b91505092915050565b600067ffffffffffffffff821115610af157610af06109ab565b5b602082029050602081019050919050565b600080fd5b6000610b1a610b1584610ad6565b610a0b565b90508083825260208201905060208402830185811115610b3d57610b3c610b02565b5b835b81811015610b8457803567ffffffffffffffff811115610b6257610b61610990565b5b808601610b6f8982610aa8565b85526020850194505050602081019050610b3f565b5050509392505050565b600082601f830112610ba357610ba2610990565b5b8135610bb3848260208601610b07565b91505092915050565b600080600060608486031215610bd557610bd46108e3565b5b600084013567ffffffffffffffff811115610bf357610bf26108e8565b5b610bff86828701610aa8565b9350506020610c108682870161090e565b925050604084013567ffffffffffffffff811115610c3157610c306108e8565b5b610c3d86828701610b8e565b9150509250925092565b610c50816108ed565b82525050565b6000602082019050610c6b6000830184610c47565b92915050565b600082825260208201905092915050565b7f4d61726b6574206973207265736f6c7665640000000000000000000000000000600082015250565b6000610cb8601283610c71565b9150610cc382610c82565b602082019050919050565b60006020820190508181036000830152610ce781610cab565b9050919050565b7f496e76616c6964206f7074696f6e000000000000000000000000000000000000600082015250565b6000610d24600e83610c71565b9150610d2f82610cee565b602082019050919050565b60006020820190508181036000830152610d5381610d17565b9050919050565b7f42657420616d6f756e74206d757374206265203e203000000000000000000000600082015250565b6000610d90601683610c71565b9150610d9b82610d5a565b602082019050919050565b60006020820190508181036000830152610dbf81610d83565b9050919050565b7f4e487b7100000000000000000000000000000000000000000000000000000000600052603260045260246000fd5b7f4e487b7100000000000000000000000000000000000000000000000000000000600052601160045260246000fd5b6000610e2f826108ed565b9150610e3a836108ed565b9250828201905080821115610e5257610e51610df5565b5b92915050565b6000604082019050610e6d6000830185610c47565b610e7a6020830184610c47565b9392505050565b7f4d61726b657420616c7265616479207265736f6c766564000000000000000000600082015250565b6000610eb7601783610c71565b9150610ec282610e81565b602082019050919050565b60006020820190508181036000830152610ee681610eaa565b9050919050565b7f4d61726b6574206e6f74207265736f6c76656420796574000000000000000000600082015250565b6000610f23601783610c71565b9150610f2e82610eed565b602082019050919050565b60006020820190508181036000830152610f5281610f16565b9050919050565b7f4e6f2077696e6e696e672062657420746f20636c61696d000000000000000000600082015250565b6000610f8f601783610c71565b9150610f9a82610f59565b602082019050919050565b60006020820190508181036000830152610fbe81610f82565b9050919050565b6000610fd0826108ed565b9150610fdb836108ed565b9250828202610fe9816108ed565b9150828204841483151761100057610fff610df5565b5b5092915050565b7f4e487b7100000000000000000000000000000000000000000000000000000000600052601260045260246000fd5b6000611041826108ed565b915061104c836108ed565b92508261105c5761105b611007565b5b828204905092915050565b7f4174206c656173742074776f206f7074696f6e73207265717569726564000000600082015250565b600061109d601d83610c71565b91506110a882611067565b602082019050919050565b600060208201905081810360008301526110cc81611090565b9050919050565b60006110de826108ed565b91507fffffffffffffffffffffffffffffffffffffffffffffffffffffffffffffffff82036111105761110f610df5565b5b600182019050919050565b600081519050919050565b7f4e487b7100000000000000000000000000000000000000000000000000000000600052602260045260246000fd5b6000600282049050600182168061116d57607f821691505b6020821081036111805761117f611126565b5b50919050565b60008190508160005260206000209050919050565b60006020601f8301049050919050565b600082821b905092915050565b6000600883026111e87fffffffffffffffffffffffffffffffffffffffffffffffffffffffffffffffff826111ab565b6111f286836111ab565b95508019841693508086168417925050509392505050565b6000819050919050565b600061122f61122a611225846108ed565b61120a565b6108ed565b9050919050565b6000819050919050565b61124983611214565b61125d61125582611236565b8484546111b8565b825550505050565b600090565b611272611265565b61127d818484611240565b505050565b5b818110156112a15761129660008261126a565b600181019050611283565b5050565b601f8211156112e6576112b781611186565b6112c08461119b565b810160208510156112cf578190505b6112e36112db8561119b565b830182611282565b50505b505050565b600082821c905092915050565b6000611309600019846008026112eb565b1980831691505092915050565b600061132283836112f8565b9150826002028217905092915050565b61133b8261111b565b67ffffffffffffffff811115611354576113536109ab565b5b61135e8254611155565b6113698282856112a5565b600060209050601f83116001811461139c576000841561138a578287015190505b6113948582611316565b8655506113fc565b601f1984166113aa86611186565b60005b828110156113d2578489015182556001820191506020850194506020810190506113ad565b868310156113ef57848901516113eb601f8916826112f8565b8355505b6001600288020188555050505b505050505050565b60005b83811015611422578082015181840152602081019050611407565b60008484015250505050565b60006114398261111b565b6114438185610c71565b9350611453818560208601611404565b61145c8161099a565b840191505092915050565b600081519050919050565b600082825260208201905092915050565b6000819050602082019050919050565b600082825260208201905092915050565b60006114af8261111b565b6114b98185611493565b93506114c9818560208601611404565b6114d28161099a565b840191505092915050565b60006114e983836114a4565b905092915050565b6000602082019050919050565b600061150982611467565b6115138185611472565b93508360208202850161152585611483565b8060005b85811015611561578484038952815161154285826114dd565b945061154d836114f1565b925060208a01995050600181019050611529565b50829750879550505050505092915050565b6000606082019050818103600083015261158d818661142e565b905061159c6020830185610c47565b81810360408301526115ae81846114fe565b905094935050505056fea264697066735822122054f826e9e253c84588ec0d821e95a5dc2a618eb7f5b214ab4d164b6feefe95f664736f6c634300081c0033",
  "linkReferences": {},
  "deployedLinkReferences": {}
}